{
  "_format": "hh-sol-artifact-1",
  "contractName": "DecentralizedLottery",
  "sourceName": "contracts/DecentralizedLottery.sol",
  "abi": [
    {
      "inputs": [
        {
          "internalType": "address",
          "name": "vrfCoordinatorV2",
          "type": "address"
        },
        {
          "internalType": "uint256",
          "name": "_entranceFee",
          "type": "uint256"
        },
        {
          "internalType": "bytes32",
          "name": "_gasLane",
          "type": "bytes32"
        },
        {
          "internalType": "uint64",
          "name": "_subscriptionId",
          "type": "uint64"
        },
        {
          "internalType": "uint32",
          "name": "_callbackGasLimit",
          "type": "uint32"
        },
        {
          "internalType": "uint256",
          "name": "_interval",
          "type": "uint256"
        }
      ],
      "stateMutability": "nonpayable",
      "type": "constructor"
    },
    {
      "inputs": [],
      "name": "Lottery__NotEnoughEthEntered",
      "type": "error"
    },
    {
      "inputs": [],
      "name": "Lottery__NotOpen",
      "type": "error"
    },
    {
      "inputs": [],
      "name": "Lottery__TransferToWinnerFailed",
      "type": "error"
    },
    {
      "inputs": [
        {
          "internalType": "uint256",
          "name": "currentBalance",
          "type": "uint256"
        },
        {
          "internalType": "uint256",
          "name": "numOfPlayers",
          "type": "uint256"
        },
        {
          "internalType": "uint256",
          "name": "raffleState",
          "type": "uint256"
        }
      ],
      "name": "Lottery__UpKeepNotNeeded",
      "type": "error"
    },
    {
      "inputs": [
        {
          "internalType": "address",
          "name": "have",
          "type": "address"
        },
        {
          "internalType": "address",
          "name": "want",
          "type": "address"
        }
      ],
      "name": "OnlyCoordinatorCanFulfill",
      "type": "error"
    },
    {
      "anonymous": false,
      "inputs": [
        {
          "indexed": true,
          "internalType": "address",
          "name": "player",
          "type": "address"
        }
      ],
      "name": "lotteryEnter",
      "type": "event"
    },
    {
      "anonymous": false,
      "inputs": [
        {
          "indexed": true,
          "internalType": "uint256",
          "name": "requestId",
          "type": "uint256"
        }
      ],
      "name": "randomNumberPick",
      "type": "event"
    },
    {
      "anonymous": false,
      "inputs": [
        {
          "indexed": true,
          "internalType": "address",
          "name": "recentWinner",
          "type": "address"
        }
      ],
      "name": "winnerPicked",
      "type": "event"
    },
    {
      "inputs": [
        {
          "internalType": "bytes",
          "name": "",
          "type": "bytes"
        }
      ],
      "name": "checkUpkeep",
      "outputs": [
        {
          "internalType": "bool",
          "name": "upkeepNeeded",
          "type": "bool"
        },
        {
          "internalType": "bytes",
          "name": "",
          "type": "bytes"
        }
      ],
      "stateMutability": "view",
      "type": "function"
    },
    {
      "inputs": [],
      "name": "enterLottery",
      "outputs": [],
      "stateMutability": "payable",
      "type": "function"
    },
    {
      "inputs": [],
      "name": "getEntranceFee",
      "outputs": [
        {
          "internalType": "uint256",
          "name": "",
          "type": "uint256"
        }
      ],
      "stateMutability": "view",
      "type": "function"
    },
    {
      "inputs": [],
      "name": "getInterval",
      "outputs": [
        {
          "internalType": "uint256",
          "name": "",
          "type": "uint256"
        }
      ],
      "stateMutability": "view",
      "type": "function"
    },
    {
      "inputs": [],
      "name": "getLastTimeStamp",
      "outputs": [
        {
          "internalType": "uint256",
          "name": "",
          "type": "uint256"
        }
      ],
      "stateMutability": "view",
      "type": "function"
    },
    {
      "inputs": [],
      "name": "getLotteryState",
      "outputs": [
        {
          "internalType": "enum DecentralizedLottery.LotteryState",
          "name": "",
          "type": "uint8"
        }
      ],
      "stateMutability": "view",
      "type": "function"
    },
    {
      "inputs": [],
      "name": "getNumWords",
      "outputs": [
        {
          "internalType": "uint256",
          "name": "",
          "type": "uint256"
        }
      ],
      "stateMutability": "pure",
      "type": "function"
    },
    {
      "inputs": [],
      "name": "getNumbersOfPlayers",
      "outputs": [
        {
          "internalType": "uint256",
          "name": "",
          "type": "uint256"
        }
      ],
      "stateMutability": "view",
      "type": "function"
    },
    {
      "inputs": [
        {
          "internalType": "uint256",
          "name": "index",
          "type": "uint256"
        }
      ],
      "name": "getPlayer",
      "outputs": [
        {
          "internalType": "address",
          "name": "",
          "type": "address"
        }
      ],
      "stateMutability": "view",
      "type": "function"
    },
    {
      "inputs": [],
      "name": "getRecentWinner",
      "outputs": [
        {
          "internalType": "address",
          "name": "",
          "type": "address"
        }
      ],
      "stateMutability": "view",
      "type": "function"
    },
    {
      "inputs": [],
      "name": "getRequestConfirmations",
      "outputs": [
        {
          "internalType": "uint256",
          "name": "",
          "type": "uint256"
        }
      ],
      "stateMutability": "pure",
      "type": "function"
    },
    {
      "inputs": [
        {
          "internalType": "bytes",
          "name": "",
          "type": "bytes"
        }
      ],
      "name": "performUpkeep",
      "outputs": [],
      "stateMutability": "nonpayable",
      "type": "function"
    },
    {
      "inputs": [
        {
          "internalType": "uint256",
          "name": "requestId",
          "type": "uint256"
        },
        {
          "internalType": "uint256[]",
          "name": "randomWords",
          "type": "uint256[]"
        }
      ],
      "name": "rawFulfillRandomWords",
      "outputs": [],
      "stateMutability": "nonpayable",
      "type": "function"
    }
  ],
  "bytecode": "0x6101606040523480156200001257600080fd5b50604051620018bb380380620018bb8339818101604052810190620000389190620001ad565b858073ffffffffffffffffffffffffffffffffffffffff1660808173ffffffffffffffffffffffffffffffffffffffff1660601b81525050508460a081815250508573ffffffffffffffffffffffffffffffffffffffff1660e08173ffffffffffffffffffffffffffffffffffffffff1660601b815250508361010081815250508267ffffffffffffffff166101208167ffffffffffffffff1660c01b815250508163ffffffff166101408163ffffffff1660e01b815250506000600360006101000a81548160ff021916908360018111156200011a5762000119620002b5565b5b0217905550426000819055508060c081815250505050505050506200036b565b6000815190506200014b81620002e9565b92915050565b600081519050620001628162000303565b92915050565b60008151905062000179816200031d565b92915050565b600081519050620001908162000337565b92915050565b600081519050620001a78162000351565b92915050565b60008060008060008060c08789031215620001cd57620001cc620002e4565b5b6000620001dd89828a016200013a565b9650506020620001f089828a0162000168565b95505060406200020389828a0162000151565b94505060606200021689828a0162000196565b93505060806200022989828a016200017f565b92505060a06200023c89828a0162000168565b9150509295509295509295565b6000620002568262000267565b9050919050565b6000819050919050565b600073ffffffffffffffffffffffffffffffffffffffff82169050919050565b6000819050919050565b600063ffffffff82169050919050565b600067ffffffffffffffff82169050919050565b7f4e487b7100000000000000000000000000000000000000000000000000000000600052602160045260246000fd5b600080fd5b620002f48162000249565b81146200030057600080fd5b50565b6200030e816200025d565b81146200031a57600080fd5b50565b620003288162000287565b81146200033457600080fd5b50565b620003428162000291565b81146200034e57600080fd5b50565b6200035c81620002a1565b81146200036857600080fd5b50565b60805160601c60a05160c05160e05160601c610100516101205160c01c6101405160e01c6114d4620003e76000396000610516015260006104f3015260006104d20152600061049601526000818161067d01526107330152600081816102fa0152610759015260008181610320015261037401526114d46000f3fe6080604052600436106100c25760003560e01c80636b68c03c1161007f57806391ad27b41161005957806391ad27b414610259578063c1af578514610284578063c1c244e81461028e578063e55ae4e8146102b9576100c2565b80636b68c03c146101c55780636e04ff0d146101f05780638233a0761461022e576100c2565b806309bc33a7146100c75780631fe543e3146100f25780634585e33b1461011b578063473f1ddc1461014457806353a2c19a1461016f5780635f1b0fd81461019a575b600080fd5b3480156100d357600080fd5b506100dc6102f6565b6040516100e991906110da565b60405180910390f35b3480156100fe57600080fd5b5061011960048036038101906101149190610eb3565b61031e565b005b34801561012757600080fd5b50610142600480360381019061013d9190610dc3565b6103de565b005b34801561015057600080fd5b506101596105de565b6040516101669190610ff8565b60405180910390f35b34801561017b57600080fd5b50610184610608565b60405161019191906110da565b60405180910390f35b3480156101a657600080fd5b506101af610617565b6040516101bc91906110da565b60405180910390f35b3480156101d157600080fd5b506101da610624565b6040516101e791906110bf565b60405180910390f35b3480156101fc57600080fd5b5061021760048036038101906102129190610e10565b61063b565b60405161022592919061103c565b60405180910390f35b34801561023a57600080fd5b50610243610722565b60405161025091906110da565b60405180910390f35b34801561026557600080fd5b5061026e61072f565b60405161027b91906110da565b60405180910390f35b61028c610757565b005b34801561029a57600080fd5b506102a36108c6565b6040516102b091906110da565b60405180910390f35b3480156102c557600080fd5b506102e060048036038101906102db9190610e59565b6108cf565b6040516102ed9190610ff8565b60405180910390f35b60007f0000000000000000000000000000000000000000000000000000000000000000905090565b7f000000000000000000000000000000000000000000000000000000000000000073ffffffffffffffffffffffffffffffffffffffff163373ffffffffffffffffffffffffffffffffffffffff16146103d057337f00000000000000000000000000000000000000000000000000000000000000006040517f1cf993f40000000000000000000000000000000000000000000000000000000081526004016103c7929190611013565b60405180910390fd5b6103da8282610917565b5050565b60006103f86040518060200160405280600081525061063b565b509050806104675747600280549050600360009054906101000a900460ff166001811115610429576104286113b4565b5b6040517fa9e3cfef00000000000000000000000000000000000000000000000000000000815260040161045e939291906110f5565b60405180910390fd5b6001600360006101000a81548160ff0219169083600181111561048d5761048c6113b4565b5b021790555060007f000000000000000000000000000000000000000000000000000000000000000073ffffffffffffffffffffffffffffffffffffffff16635d3b1d307f00000000000000000000000000000000000000000000000000000000000000007f000000000000000000000000000000000000000000000000000000000000000060037f000000000000000000000000000000000000000000000000000000000000000060016040518663ffffffff1660e01b815260040161055795949392919061106c565b602060405180830381600087803b15801561057157600080fd5b505af1158015610585573d6000803e3d6000fd5b505050506040513d601f19601f820116820180604052508101906105a99190610e86565b9050807fecc3483bfb6d697d331d58898d2400387ced5b0bf3092b2ff3f3b3a542f6f74860405160405180910390a250505050565b6000600160009054906101000a900473ffffffffffffffffffffffffffffffffffffffff16905090565b6000600163ffffffff16905090565b6000600361ffff16905090565b6000600360009054906101000a900460ff16905090565b600060606000806001811115610654576106536113b4565b5b600360009054906101000a900460ff166001811115610676576106756113b4565b5b14905060007f0000000000000000000000000000000000000000000000000000000000000000600054426106aa91906111d5565b119050600080600280549050119050600080471190508380156106ca5750825b80156106d35750815b80156106dc5750805b9550856040518060400160405280600381526020017f30783000000000000000000000000000000000000000000000000000000000008152509550955050505050915091565b6000600280549050905090565b60007f0000000000000000000000000000000000000000000000000000000000000000905090565b7f00000000000000000000000000000000000000000000000000000000000000003410156107b1576040517f3e8f808800000000000000000000000000000000000000000000000000000000815260040160405180910390fd5b600060018111156107c5576107c46113b4565b5b600360009054906101000a900460ff1660018111156107e7576107e66113b4565b5b1461081e576040517fe76be6fc00000000000000000000000000000000000000000000000000000000815260040160405180910390fd5b6002339080600181540180825580915050600190039060005260206000200160009091909190916101000a81548173ffffffffffffffffffffffffffffffffffffffff021916908373ffffffffffffffffffffffffffffffffffffffff1602179055503373ffffffffffffffffffffffffffffffffffffffff167f6ba87006f2c53f2d227d45b3400034f16dbf4f6842816c4880d30170f3a6a16060405160405180910390a2565b60008054905090565b6000600282815481106108e5576108e46113e3565b5b9060005260206000200160009054906101000a900473ffffffffffffffffffffffffffffffffffffffff169050919050565b600060028054905082600081518110610933576109326113e3565b5b60200260200101516109459190611325565b905060006002828154811061095d5761095c6113e3565b5b9060005260206000200160009054906101000a900473ffffffffffffffffffffffffffffffffffffffff16905080600160006101000a81548173ffffffffffffffffffffffffffffffffffffffff021916908373ffffffffffffffffffffffffffffffffffffffff1602179055506000600160009054906101000a900473ffffffffffffffffffffffffffffffffffffffff1673ffffffffffffffffffffffffffffffffffffffff1647604051610a1390610fe3565b60006040518083038185875af1925050503d8060008114610a50576040519150601f19603f3d011682016040523d82523d6000602084013e610a55565b606091505b5050905080610a90576040517fbb2fec4300000000000000000000000000000000000000000000000000000000815260040160405180910390fd5b600160009054906101000a900473ffffffffffffffffffffffffffffffffffffffff1673ffffffffffffffffffffffffffffffffffffffff167f794919b0f484b8e90b1b817ac7f880f846fbd8a9813dee2a378e820db094e3d160405160405180910390a26000600360006101000a81548160ff02191690836001811115610b1b57610b1a6113b4565b5b0217905550600067ffffffffffffffff811115610b3b57610b3a611412565b5b604051908082528060200260200182016040528015610b695781602001602082028036833780820191505090505b5060029080519060200190610b7f929190610b8e565b50426000819055505050505050565b828054828255906000526020600020908101928215610c07579160200282015b82811115610c065782518260006101000a81548173ffffffffffffffffffffffffffffffffffffffff021916908373ffffffffffffffffffffffffffffffffffffffff16021790555091602001919060010190610bae565b5b509050610c149190610c18565b5090565b5b80821115610c31576000816000905550600101610c19565b5090565b6000610c48610c4384611151565b61112c565b90508083825260208201905082856020860282011115610c6b57610c6a61144b565b5b60005b85811015610c9b5781610c818882610d99565b845260208401935060208301925050600181019050610c6e565b5050509392505050565b6000610cb8610cb38461117d565b61112c565b905082815260208101848484011115610cd457610cd3611450565b5b610cdf8482856112b2565b509392505050565b600082601f830112610cfc57610cfb611446565b5b8135610d0c848260208601610c35565b91505092915050565b60008083601f840112610d2b57610d2a611446565b5b8235905067ffffffffffffffff811115610d4857610d47611441565b5b602083019150836001820283011115610d6457610d6361144b565b5b9250929050565b600082601f830112610d8057610d7f611446565b5b8135610d90848260208601610ca5565b91505092915050565b600081359050610da881611487565b92915050565b600081519050610dbd81611487565b92915050565b60008060208385031215610dda57610dd961145a565b5b600083013567ffffffffffffffff811115610df857610df7611455565b5b610e0485828601610d15565b92509250509250929050565b600060208284031215610e2657610e2561145a565b5b600082013567ffffffffffffffff811115610e4457610e43611455565b5b610e5084828501610d6b565b91505092915050565b600060208284031215610e6f57610e6e61145a565b5b6000610e7d84828501610d99565b91505092915050565b600060208284031215610e9c57610e9b61145a565b5b6000610eaa84828501610dae565b91505092915050565b60008060408385031215610eca57610ec961145a565b5b6000610ed885828601610d99565b925050602083013567ffffffffffffffff811115610ef957610ef8611455565b5b610f0585828601610ce7565b9150509250929050565b610f1881611209565b82525050565b610f278161121b565b82525050565b610f3681611227565b82525050565b6000610f47826111ae565b610f5181856111b9565b9350610f618185602086016112c1565b610f6a8161145f565b840191505092915050565b610f7e816112a0565b82525050565b6000610f916000836111ca565b9150610f9c82611470565b600082019050919050565b610fb081611244565b82525050565b610fbf81611272565b82525050565b610fce8161127c565b82525050565b610fdd8161128c565b82525050565b6000610fee82610f84565b9150819050919050565b600060208201905061100d6000830184610f0f565b92915050565b60006040820190506110286000830185610f0f565b6110356020830184610f0f565b9392505050565b60006040820190506110516000830185610f1e565b81810360208301526110638184610f3c565b90509392505050565b600060a0820190506110816000830188610f2d565b61108e6020830187610fd4565b61109b6040830186610fa7565b6110a86060830185610fc5565b6110b56080830184610fc5565b9695505050505050565b60006020820190506110d46000830184610f75565b92915050565b60006020820190506110ef6000830184610fb6565b92915050565b600060608201905061110a6000830186610fb6565b6111176020830185610fb6565b6111246040830184610fb6565b949350505050565b6000611136611147565b905061114282826112f4565b919050565b6000604051905090565b600067ffffffffffffffff82111561116c5761116b611412565b5b602082029050602081019050919050565b600067ffffffffffffffff82111561119857611197611412565b5b6111a18261145f565b9050602081019050919050565b600081519050919050565b600082825260208201905092915050565b600081905092915050565b60006111e082611272565b91506111eb83611272565b9250828210156111fe576111fd611356565b5b828203905092915050565b600061121482611252565b9050919050565b60008115159050919050565b6000819050919050565b600081905061123f82611473565b919050565b600061ffff82169050919050565b600073ffffffffffffffffffffffffffffffffffffffff82169050919050565b6000819050919050565b600063ffffffff82169050919050565b600067ffffffffffffffff82169050919050565b60006112ab82611231565b9050919050565b82818337600083830152505050565b60005b838110156112df5780820151818401526020810190506112c4565b838111156112ee576000848401525b50505050565b6112fd8261145f565b810181811067ffffffffffffffff8211171561131c5761131b611412565b5b80604052505050565b600061133082611272565b915061133b83611272565b92508261134b5761134a611385565b5b828206905092915050565b7f4e487b7100000000000000000000000000000000000000000000000000000000600052601160045260246000fd5b7f4e487b7100000000000000000000000000000000000000000000000000000000600052601260045260246000fd5b7f4e487b7100000000000000000000000000000000000000000000000000000000600052602160045260246000fd5b7f4e487b7100000000000000000000000000000000000000000000000000000000600052603260045260246000fd5b7f4e487b7100000000000000000000000000000000000000000000000000000000600052604160045260246000fd5b600080fd5b600080fd5b600080fd5b600080fd5b600080fd5b600080fd5b6000601f19601f8301169050919050565b50565b60028110611484576114836113b4565b5b50565b61149081611272565b811461149b57600080fd5b5056fea2646970667358221220b165491471db314b66bbbcaacc36b9f728b8854ca64b5bd871237cbddbe821d164736f6c63430008070033",
  "linkReferences": {},
  "deployedLinkReferences": {}
}