{
  "_format": "hh-sol-artifact-1",
  "contractName": "DecentralizedLottery",
  "sourceName": "contracts/DecentralizedLottery.sol",
  "abi": [
    {
      "inputs": [
        {
          "internalType": "address",
          "name": "vrfCoordinatorV2",
          "type": "address"
        },
        {
          "internalType": "uint256",
          "name": "_entranceFee",
          "type": "uint256"
        }
      ],
      "stateMutability": "nonpayable",
      "type": "constructor"
    },
    {
      "inputs": [],
      "name": "Lottery__NotEnoughEthEntered",
      "type": "error"
    },
    {
      "inputs": [
        {
          "internalType": "address",
          "name": "have",
          "type": "address"
        },
        {
          "internalType": "address",
          "name": "want",
          "type": "address"
        }
      ],
      "name": "OnlyCoordinatorCanFulfill",
      "type": "error"
    },
    {
      "anonymous": false,
      "inputs": [
        {
          "indexed": true,
          "internalType": "address",
          "name": "player",
          "type": "address"
        }
      ],
      "name": "lotteryEnter",
      "type": "event"
    },
    {
      "inputs": [],
      "name": "enterLottery",
      "outputs": [],
      "stateMutability": "payable",
      "type": "function"
    },
    {
      "inputs": [],
      "name": "getEntranceFee",
      "outputs": [
        {
          "internalType": "uint256",
          "name": "",
          "type": "uint256"
        }
      ],
      "stateMutability": "view",
      "type": "function"
    },
    {
      "inputs": [
        {
          "internalType": "uint256",
          "name": "index",
          "type": "uint256"
        }
      ],
      "name": "getPlayer",
      "outputs": [
        {
          "internalType": "address",
          "name": "",
          "type": "address"
        }
      ],
      "stateMutability": "view",
      "type": "function"
    },
    {
      "inputs": [],
      "name": "owner",
      "outputs": [
        {
          "internalType": "address",
          "name": "",
          "type": "address"
        }
      ],
      "stateMutability": "view",
      "type": "function"
    },
    {
      "inputs": [],
      "name": "pickRandomNumber",
      "outputs": [],
      "stateMutability": "nonpayable",
      "type": "function"
    },
    {
      "inputs": [
        {
          "internalType": "uint256",
          "name": "requestId",
          "type": "uint256"
        },
        {
          "internalType": "uint256[]",
          "name": "randomWords",
          "type": "uint256[]"
        }
      ],
      "name": "rawFulfillRandomWords",
      "outputs": [],
      "stateMutability": "nonpayable",
      "type": "function"
    }
  ],
  "bytecode": "0x60c060405234801561001057600080fd5b506040516108a33803806108a3833981810160405281019061003291906100e4565b818073ffffffffffffffffffffffffffffffffffffffff1660808173ffffffffffffffffffffffffffffffffffffffff1660601b81525050508060a08181525050336000806101000a81548173ffffffffffffffffffffffffffffffffffffffff021916908373ffffffffffffffffffffffffffffffffffffffff1602179055505050610193565b6000815190506100c981610165565b92915050565b6000815190506100de8161017c565b92915050565b600080604083850312156100fb576100fa610160565b5b6000610109858286016100ba565b925050602061011a858286016100cf565b9150509250929050565b600061012f82610136565b9050919050565b600073ffffffffffffffffffffffffffffffffffffffff82169050919050565b6000819050919050565b600080fd5b61016e81610124565b811461017957600080fd5b50565b61018581610156565b811461019057600080fd5b50565b60805160601c60a0516106da6101c96000396000818161013b015261024701526000818161016101526101b501526106da6000f3fe6080604052600436106100555760003560e01c806309bc33a71461005a5780631fe543e3146100855780638da5cb5b146100ae578063a2acb2eb146100d9578063c1af5785146100f0578063e55ae4e8146100fa575b600080fd5b34801561006657600080fd5b5061006f610137565b60405161007c9190610531565b60405180910390f35b34801561009157600080fd5b506100ac60048036038101906100a79190610473565b61015f565b005b3480156100ba57600080fd5b506100c361021f565b6040516100d091906104ed565b60405180910390f35b3480156100e557600080fd5b506100ee610243565b005b6100f8610245565b005b34801561010657600080fd5b50610121600480360381019061011c9190610446565b610347565b60405161012e91906104ed565b60405180910390f35b60007f0000000000000000000000000000000000000000000000000000000000000000905090565b7f000000000000000000000000000000000000000000000000000000000000000073ffffffffffffffffffffffffffffffffffffffff163373ffffffffffffffffffffffffffffffffffffffff161461021157337f00000000000000000000000000000000000000000000000000000000000000006040517f1cf993f4000000000000000000000000000000000000000000000000000000008152600401610208929190610508565b60405180910390fd5b61021b828261038f565b5050565b60008054906101000a900473ffffffffffffffffffffffffffffffffffffffff1681565b565b7f000000000000000000000000000000000000000000000000000000000000000034101561029f576040517f3e8f808800000000000000000000000000000000000000000000000000000000815260040160405180910390fd5b6001339080600181540180825580915050600190039060005260206000200160009091909190916101000a81548173ffffffffffffffffffffffffffffffffffffffff021916908373ffffffffffffffffffffffffffffffffffffffff1602179055503373ffffffffffffffffffffffffffffffffffffffff167f6ba87006f2c53f2d227d45b3400034f16dbf4f6842816c4880d30170f3a6a16060405160405180910390a2565b60006001828154811061035d5761035c61060a565b5b9060005260206000200160009054906101000a900473ffffffffffffffffffffffffffffffffffffffff169050919050565b5050565b60006103a66103a184610571565b61054c565b905080838252602082019050828560208602820111156103c9576103c861066d565b5b60005b858110156103f957816103df8882610431565b8452602084019350602083019250506001810190506103cc565b5050509392505050565b600082601f83011261041857610417610668565b5b8135610428848260208601610393565b91505092915050565b6000813590506104408161068d565b92915050565b60006020828403121561045c5761045b610677565b5b600061046a84828501610431565b91505092915050565b6000806040838503121561048a57610489610677565b5b600061049885828601610431565b925050602083013567ffffffffffffffff8111156104b9576104b8610672565b5b6104c585828601610403565b9150509250929050565b6104d88161059d565b82525050565b6104e7816105cf565b82525050565b600060208201905061050260008301846104cf565b92915050565b600060408201905061051d60008301856104cf565b61052a60208301846104cf565b9392505050565b600060208201905061054660008301846104de565b92915050565b6000610556610567565b905061056282826105d9565b919050565b6000604051905090565b600067ffffffffffffffff82111561058c5761058b610639565b5b602082029050602081019050919050565b60006105a8826105af565b9050919050565b600073ffffffffffffffffffffffffffffffffffffffff82169050919050565b6000819050919050565b6105e28261067c565b810181811067ffffffffffffffff8211171561060157610600610639565b5b80604052505050565b7f4e487b7100000000000000000000000000000000000000000000000000000000600052603260045260246000fd5b7f4e487b7100000000000000000000000000000000000000000000000000000000600052604160045260246000fd5b600080fd5b600080fd5b600080fd5b600080fd5b6000601f19601f8301169050919050565b610696816105cf565b81146106a157600080fd5b5056fea2646970667358221220c124c9d3dad1f70ed55caa06c8146d354838cd7443c16dbabdc45235e3efd19f64736f6c63430008060033",
  "linkReferences": {},
  "deployedLinkReferences": {}
}