{
  "_format": "hh-sol-artifact-1",
  "contractName": "DecentralizedLottery",
  "sourceName": "contracts/DecentralizedLottery.sol",
  "abi": [
    {
      "inputs": [
        {
          "internalType": "address",
          "name": "vrfCoordinatorV2",
          "type": "address"
        },
        {
          "internalType": "uint256",
          "name": "_entranceFee",
          "type": "uint256"
        },
        {
          "internalType": "bytes32",
          "name": "_gasLane",
          "type": "bytes32"
        },
        {
          "internalType": "uint64",
          "name": "_subscriptionId",
          "type": "uint64"
        },
        {
          "internalType": "uint32",
          "name": "_callbackGasLimit",
          "type": "uint32"
        },
        {
          "internalType": "uint256",
          "name": "_interval",
          "type": "uint256"
        }
      ],
      "stateMutability": "nonpayable",
      "type": "constructor"
    },
    {
      "inputs": [],
      "name": "Lottery__NotEnoughEthEntered",
      "type": "error"
    },
    {
      "inputs": [],
      "name": "Lottery__NotOpen",
      "type": "error"
    },
    {
      "inputs": [],
      "name": "Lottery__TransferToWinnerFailed",
      "type": "error"
    },
    {
      "inputs": [
        {
          "internalType": "uint256",
          "name": "currentBalance",
          "type": "uint256"
        },
        {
          "internalType": "uint256",
          "name": "numOfPlayers",
          "type": "uint256"
        },
        {
          "internalType": "uint256",
          "name": "raffleState",
          "type": "uint256"
        }
      ],
      "name": "Lottery__UpKeepNotNeeded",
      "type": "error"
    },
    {
      "inputs": [
        {
          "internalType": "address",
          "name": "have",
          "type": "address"
        },
        {
          "internalType": "address",
          "name": "want",
          "type": "address"
        }
      ],
      "name": "OnlyCoordinatorCanFulfill",
      "type": "error"
    },
    {
      "anonymous": false,
      "inputs": [
        {
          "indexed": true,
          "internalType": "address",
          "name": "player",
          "type": "address"
        }
      ],
      "name": "lotteryEnter",
      "type": "event"
    },
    {
      "anonymous": false,
      "inputs": [
        {
          "indexed": true,
          "internalType": "uint256",
          "name": "requestId",
          "type": "uint256"
        }
      ],
      "name": "randomNumberPick",
      "type": "event"
    },
    {
      "anonymous": false,
      "inputs": [
        {
          "indexed": true,
          "internalType": "address",
          "name": "recentWinner",
          "type": "address"
        }
      ],
      "name": "winnerPicked",
      "type": "event"
    },
    {
      "inputs": [
        {
          "internalType": "bytes",
          "name": "",
          "type": "bytes"
        }
      ],
      "name": "checkUpkeep",
      "outputs": [
        {
          "internalType": "bool",
          "name": "upkeepNeeded",
          "type": "bool"
        },
        {
          "internalType": "bytes",
          "name": "",
          "type": "bytes"
        }
      ],
      "stateMutability": "view",
      "type": "function"
    },
    {
      "inputs": [],
      "name": "enterLottery",
      "outputs": [],
      "stateMutability": "payable",
      "type": "function"
    },
    {
      "inputs": [],
      "name": "getEntranceFee",
      "outputs": [
        {
          "internalType": "uint256",
          "name": "",
          "type": "uint256"
        }
      ],
      "stateMutability": "view",
      "type": "function"
    },
    {
      "inputs": [],
      "name": "getLastTimeStamp",
      "outputs": [
        {
          "internalType": "uint256",
          "name": "",
          "type": "uint256"
        }
      ],
      "stateMutability": "view",
      "type": "function"
    },
    {
      "inputs": [],
      "name": "getLotteryState",
      "outputs": [
        {
          "internalType": "enum DecentralizedLottery.LotteryState",
          "name": "",
          "type": "uint8"
        }
      ],
      "stateMutability": "view",
      "type": "function"
    },
    {
      "inputs": [],
      "name": "getNumWords",
      "outputs": [
        {
          "internalType": "uint256",
          "name": "",
          "type": "uint256"
        }
      ],
      "stateMutability": "pure",
      "type": "function"
    },
    {
      "inputs": [],
      "name": "getNumbersOfPlayers",
      "outputs": [
        {
          "internalType": "uint256",
          "name": "",
          "type": "uint256"
        }
      ],
      "stateMutability": "view",
      "type": "function"
    },
    {
      "inputs": [
        {
          "internalType": "uint256",
          "name": "index",
          "type": "uint256"
        }
      ],
      "name": "getPlayer",
      "outputs": [
        {
          "internalType": "address",
          "name": "",
          "type": "address"
        }
      ],
      "stateMutability": "view",
      "type": "function"
    },
    {
      "inputs": [],
      "name": "getRecentWinner",
      "outputs": [
        {
          "internalType": "address",
          "name": "",
          "type": "address"
        }
      ],
      "stateMutability": "view",
      "type": "function"
    },
    {
      "inputs": [],
      "name": "getRequestConfirmations",
      "outputs": [
        {
          "internalType": "uint256",
          "name": "",
          "type": "uint256"
        }
      ],
      "stateMutability": "pure",
      "type": "function"
    },
    {
      "inputs": [
        {
          "internalType": "bytes",
          "name": "",
          "type": "bytes"
        }
      ],
      "name": "performUpkeep",
      "outputs": [],
      "stateMutability": "nonpayable",
      "type": "function"
    },
    {
      "inputs": [
        {
          "internalType": "uint256",
          "name": "requestId",
          "type": "uint256"
        },
        {
          "internalType": "uint256[]",
          "name": "randomWords",
          "type": "uint256[]"
        }
      ],
      "name": "rawFulfillRandomWords",
      "outputs": [],
      "stateMutability": "nonpayable",
      "type": "function"
    }
  ],
  "bytecode": "0x6101606040523480156200001257600080fd5b5060405162001846380380620018468339818101604052810190620000389190620001ad565b858073ffffffffffffffffffffffffffffffffffffffff1660808173ffffffffffffffffffffffffffffffffffffffff1660601b81525050508460a081815250508573ffffffffffffffffffffffffffffffffffffffff1660e08173ffffffffffffffffffffffffffffffffffffffff1660601b815250508361010081815250508267ffffffffffffffff166101208167ffffffffffffffff1660c01b815250508163ffffffff166101408163ffffffff1660e01b815250506000600360006101000a81548160ff021916908360018111156200011a5762000119620002b5565b5b0217905550426000819055508060c081815250505050505050506200036b565b6000815190506200014b81620002e9565b92915050565b600081519050620001628162000303565b92915050565b60008151905062000179816200031d565b92915050565b600081519050620001908162000337565b92915050565b600081519050620001a78162000351565b92915050565b60008060008060008060c08789031215620001cd57620001cc620002e4565b5b6000620001dd89828a016200013a565b9650506020620001f089828a0162000168565b95505060406200020389828a0162000151565b94505060606200021689828a0162000196565b93505060806200022989828a016200017f565b92505060a06200023c89828a0162000168565b9150509295509295509295565b6000620002568262000267565b9050919050565b6000819050919050565b600073ffffffffffffffffffffffffffffffffffffffff82169050919050565b6000819050919050565b600063ffffffff82169050919050565b600067ffffffffffffffff82169050919050565b7f4e487b7100000000000000000000000000000000000000000000000000000000600052602160045260246000fd5b600080fd5b620002f48162000249565b81146200030057600080fd5b50565b6200030e816200025d565b81146200031a57600080fd5b50565b620003288162000287565b81146200033457600080fd5b50565b620003428162000291565b81146200034e57600080fd5b50565b6200035c81620002a1565b81146200036857600080fd5b50565b60805160601c60a05160c05160e05160601c610100516101205160c01c6101405160e01c611466620003e060003960006104d0015260006104ad0152600061048c01526000610450015260006106370152600081816102b401526106eb0152600081816102da015261032e01526114666000f3fe6080604052600436106100a75760003560e01c80636b68c03c116100645780636b68c03c146101aa5780636e04ff0d146101d55780638233a07614610213578063c1af57851461023e578063c1c244e814610248578063e55ae4e814610273576100a7565b806309bc33a7146100ac5780631fe543e3146100d75780634585e33b14610100578063473f1ddc1461012957806353a2c19a146101545780635f1b0fd81461017f575b600080fd5b3480156100b857600080fd5b506100c16102b0565b6040516100ce919061106c565b60405180910390f35b3480156100e357600080fd5b506100fe60048036038101906100f99190610e45565b6102d8565b005b34801561010c57600080fd5b5061012760048036038101906101229190610d55565b610398565b005b34801561013557600080fd5b5061013e610598565b60405161014b9190610f8a565b60405180910390f35b34801561016057600080fd5b506101696105c2565b604051610176919061106c565b60405180910390f35b34801561018b57600080fd5b506101946105d1565b6040516101a1919061106c565b60405180910390f35b3480156101b657600080fd5b506101bf6105de565b6040516101cc9190611051565b60405180910390f35b3480156101e157600080fd5b506101fc60048036038101906101f79190610da2565b6105f5565b60405161020a929190610fce565b60405180910390f35b34801561021f57600080fd5b506102286106dc565b604051610235919061106c565b60405180910390f35b6102466106e9565b005b34801561025457600080fd5b5061025d610858565b60405161026a919061106c565b60405180910390f35b34801561027f57600080fd5b5061029a60048036038101906102959190610deb565b610861565b6040516102a79190610f8a565b60405180910390f35b60007f0000000000000000000000000000000000000000000000000000000000000000905090565b7f000000000000000000000000000000000000000000000000000000000000000073ffffffffffffffffffffffffffffffffffffffff163373ffffffffffffffffffffffffffffffffffffffff161461038a57337f00000000000000000000000000000000000000000000000000000000000000006040517f1cf993f4000000000000000000000000000000000000000000000000000000008152600401610381929190610fa5565b60405180910390fd5b61039482826108a9565b5050565b60006103b2604051806020016040528060008152506105f5565b509050806104215747600280549050600360009054906101000a900460ff1660018111156103e3576103e2611346565b5b6040517fa9e3cfef00000000000000000000000000000000000000000000000000000000815260040161041893929190611087565b60405180910390fd5b6001600360006101000a81548160ff0219169083600181111561044757610446611346565b5b021790555060007f000000000000000000000000000000000000000000000000000000000000000073ffffffffffffffffffffffffffffffffffffffff16635d3b1d307f00000000000000000000000000000000000000000000000000000000000000007f000000000000000000000000000000000000000000000000000000000000000060037f000000000000000000000000000000000000000000000000000000000000000060016040518663ffffffff1660e01b8152600401610511959493929190610ffe565b602060405180830381600087803b15801561052b57600080fd5b505af115801561053f573d6000803e3d6000fd5b505050506040513d601f19601f820116820180604052508101906105639190610e18565b9050807fecc3483bfb6d697d331d58898d2400387ced5b0bf3092b2ff3f3b3a542f6f74860405160405180910390a250505050565b6000600160009054906101000a900473ffffffffffffffffffffffffffffffffffffffff16905090565b6000600163ffffffff16905090565b6000600361ffff16905090565b6000600360009054906101000a900460ff16905090565b60006060600080600181111561060e5761060d611346565b5b600360009054906101000a900460ff1660018111156106305761062f611346565b5b14905060007f0000000000000000000000000000000000000000000000000000000000000000600054426106649190611167565b119050600080600280549050119050600080471190508380156106845750825b801561068d5750815b80156106965750805b9550856040518060400160405280600381526020017f30783000000000000000000000000000000000000000000000000000000000008152509550955050505050915091565b6000600280549050905090565b7f0000000000000000000000000000000000000000000000000000000000000000341015610743576040517f3e8f808800000000000000000000000000000000000000000000000000000000815260040160405180910390fd5b6000600181111561075757610756611346565b5b600360009054906101000a900460ff16600181111561077957610778611346565b5b146107b0576040517fe76be6fc00000000000000000000000000000000000000000000000000000000815260040160405180910390fd5b6002339080600181540180825580915050600190039060005260206000200160009091909190916101000a81548173ffffffffffffffffffffffffffffffffffffffff021916908373ffffffffffffffffffffffffffffffffffffffff1602179055503373ffffffffffffffffffffffffffffffffffffffff167f6ba87006f2c53f2d227d45b3400034f16dbf4f6842816c4880d30170f3a6a16060405160405180910390a2565b60008054905090565b60006002828154811061087757610876611375565b5b9060005260206000200160009054906101000a900473ffffffffffffffffffffffffffffffffffffffff169050919050565b6000600280549050826000815181106108c5576108c4611375565b5b60200260200101516108d791906112b7565b90506000600282815481106108ef576108ee611375565b5b9060005260206000200160009054906101000a900473ffffffffffffffffffffffffffffffffffffffff16905080600160006101000a81548173ffffffffffffffffffffffffffffffffffffffff021916908373ffffffffffffffffffffffffffffffffffffffff1602179055506000600160009054906101000a900473ffffffffffffffffffffffffffffffffffffffff1673ffffffffffffffffffffffffffffffffffffffff16476040516109a590610f75565b60006040518083038185875af1925050503d80600081146109e2576040519150601f19603f3d011682016040523d82523d6000602084013e6109e7565b606091505b5050905080610a22576040517fbb2fec4300000000000000000000000000000000000000000000000000000000815260040160405180910390fd5b600160009054906101000a900473ffffffffffffffffffffffffffffffffffffffff1673ffffffffffffffffffffffffffffffffffffffff167f794919b0f484b8e90b1b817ac7f880f846fbd8a9813dee2a378e820db094e3d160405160405180910390a26000600360006101000a81548160ff02191690836001811115610aad57610aac611346565b5b0217905550600067ffffffffffffffff811115610acd57610acc6113a4565b5b604051908082528060200260200182016040528015610afb5781602001602082028036833780820191505090505b5060029080519060200190610b11929190610b20565b50426000819055505050505050565b828054828255906000526020600020908101928215610b99579160200282015b82811115610b985782518260006101000a81548173ffffffffffffffffffffffffffffffffffffffff021916908373ffffffffffffffffffffffffffffffffffffffff16021790555091602001919060010190610b40565b5b509050610ba69190610baa565b5090565b5b80821115610bc3576000816000905550600101610bab565b5090565b6000610bda610bd5846110e3565b6110be565b90508083825260208201905082856020860282011115610bfd57610bfc6113dd565b5b60005b85811015610c2d5781610c138882610d2b565b845260208401935060208301925050600181019050610c00565b5050509392505050565b6000610c4a610c458461110f565b6110be565b905082815260208101848484011115610c6657610c656113e2565b5b610c71848285611244565b509392505050565b600082601f830112610c8e57610c8d6113d8565b5b8135610c9e848260208601610bc7565b91505092915050565b60008083601f840112610cbd57610cbc6113d8565b5b8235905067ffffffffffffffff811115610cda57610cd96113d3565b5b602083019150836001820283011115610cf657610cf56113dd565b5b9250929050565b600082601f830112610d1257610d116113d8565b5b8135610d22848260208601610c37565b91505092915050565b600081359050610d3a81611419565b92915050565b600081519050610d4f81611419565b92915050565b60008060208385031215610d6c57610d6b6113ec565b5b600083013567ffffffffffffffff811115610d8a57610d896113e7565b5b610d9685828601610ca7565b92509250509250929050565b600060208284031215610db857610db76113ec565b5b600082013567ffffffffffffffff811115610dd657610dd56113e7565b5b610de284828501610cfd565b91505092915050565b600060208284031215610e0157610e006113ec565b5b6000610e0f84828501610d2b565b91505092915050565b600060208284031215610e2e57610e2d6113ec565b5b6000610e3c84828501610d40565b91505092915050565b60008060408385031215610e5c57610e5b6113ec565b5b6000610e6a85828601610d2b565b925050602083013567ffffffffffffffff811115610e8b57610e8a6113e7565b5b610e9785828601610c79565b9150509250929050565b610eaa8161119b565b82525050565b610eb9816111ad565b82525050565b610ec8816111b9565b82525050565b6000610ed982611140565b610ee3818561114b565b9350610ef3818560208601611253565b610efc816113f1565b840191505092915050565b610f1081611232565b82525050565b6000610f2360008361115c565b9150610f2e82611402565b600082019050919050565b610f42816111d6565b82525050565b610f5181611204565b82525050565b610f608161120e565b82525050565b610f6f8161121e565b82525050565b6000610f8082610f16565b9150819050919050565b6000602082019050610f9f6000830184610ea1565b92915050565b6000604082019050610fba6000830185610ea1565b610fc76020830184610ea1565b9392505050565b6000604082019050610fe36000830185610eb0565b8181036020830152610ff58184610ece565b90509392505050565b600060a0820190506110136000830188610ebf565b6110206020830187610f66565b61102d6040830186610f39565b61103a6060830185610f57565b6110476080830184610f57565b9695505050505050565b60006020820190506110666000830184610f07565b92915050565b60006020820190506110816000830184610f48565b92915050565b600060608201905061109c6000830186610f48565b6110a96020830185610f48565b6110b66040830184610f48565b949350505050565b60006110c86110d9565b90506110d48282611286565b919050565b6000604051905090565b600067ffffffffffffffff8211156110fe576110fd6113a4565b5b602082029050602081019050919050565b600067ffffffffffffffff82111561112a576111296113a4565b5b611133826113f1565b9050602081019050919050565b600081519050919050565b600082825260208201905092915050565b600081905092915050565b600061117282611204565b915061117d83611204565b9250828210156111905761118f6112e8565b5b828203905092915050565b60006111a6826111e4565b9050919050565b60008115159050919050565b6000819050919050565b60008190506111d182611405565b919050565b600061ffff82169050919050565b600073ffffffffffffffffffffffffffffffffffffffff82169050919050565b6000819050919050565b600063ffffffff82169050919050565b600067ffffffffffffffff82169050919050565b600061123d826111c3565b9050919050565b82818337600083830152505050565b60005b83811015611271578082015181840152602081019050611256565b83811115611280576000848401525b50505050565b61128f826113f1565b810181811067ffffffffffffffff821117156112ae576112ad6113a4565b5b80604052505050565b60006112c282611204565b91506112cd83611204565b9250826112dd576112dc611317565b5b828206905092915050565b7f4e487b7100000000000000000000000000000000000000000000000000000000600052601160045260246000fd5b7f4e487b7100000000000000000000000000000000000000000000000000000000600052601260045260246000fd5b7f4e487b7100000000000000000000000000000000000000000000000000000000600052602160045260246000fd5b7f4e487b7100000000000000000000000000000000000000000000000000000000600052603260045260246000fd5b7f4e487b7100000000000000000000000000000000000000000000000000000000600052604160045260246000fd5b600080fd5b600080fd5b600080fd5b600080fd5b600080fd5b600080fd5b6000601f19601f8301169050919050565b50565b6002811061141657611415611346565b5b50565b61142281611204565b811461142d57600080fd5b5056fea2646970667358221220b6cb3902981a8c99284ef3fbfc04d17e40cd9c9cad99e184ad8fa8a91d4498e664736f6c63430008070033",
  "linkReferences": {},
  "deployedLinkReferences": {}
}