{
  "_format": "hh-sol-artifact-1",
  "contractName": "DecentralizedLottery",
  "sourceName": "contracts/DecentralizedLottery.sol",
  "abi": [
    {
      "inputs": [
        {
          "internalType": "address",
          "name": "vrfCoordinatorV2",
          "type": "address"
        },
        {
          "internalType": "uint256",
          "name": "_entranceFee",
          "type": "uint256"
        },
        {
          "internalType": "bytes32",
          "name": "_gasLane",
          "type": "bytes32"
        },
        {
          "internalType": "uint64",
          "name": "_subscriptionId",
          "type": "uint64"
        },
        {
          "internalType": "uint32",
          "name": "_callbackGasLimit",
          "type": "uint32"
        }
      ],
      "stateMutability": "nonpayable",
      "type": "constructor"
    },
    {
      "inputs": [],
      "name": "Lottery__NotEnoughEthEntered",
      "type": "error"
    },
    {
      "inputs": [],
      "name": "Lottery__TransferToWinnerFailed",
      "type": "error"
    },
    {
      "inputs": [
        {
          "internalType": "address",
          "name": "have",
          "type": "address"
        },
        {
          "internalType": "address",
          "name": "want",
          "type": "address"
        }
      ],
      "name": "OnlyCoordinatorCanFulfill",
      "type": "error"
    },
    {
      "anonymous": false,
      "inputs": [
        {
          "indexed": true,
          "internalType": "address",
          "name": "player",
          "type": "address"
        }
      ],
      "name": "lotteryEnter",
      "type": "event"
    },
    {
      "anonymous": false,
      "inputs": [
        {
          "indexed": true,
          "internalType": "uint256",
          "name": "requestId",
          "type": "uint256"
        }
      ],
      "name": "randomNumberPick",
      "type": "event"
    },
    {
      "anonymous": false,
      "inputs": [
        {
          "indexed": true,
          "internalType": "address",
          "name": "recentWinner",
          "type": "address"
        }
      ],
      "name": "winnerPicked",
      "type": "event"
    },
    {
      "inputs": [],
      "name": "enterLottery",
      "outputs": [],
      "stateMutability": "payable",
      "type": "function"
    },
    {
      "inputs": [],
      "name": "getEntranceFee",
      "outputs": [
        {
          "internalType": "uint256",
          "name": "",
          "type": "uint256"
        }
      ],
      "stateMutability": "view",
      "type": "function"
    },
    {
      "inputs": [
        {
          "internalType": "uint256",
          "name": "index",
          "type": "uint256"
        }
      ],
      "name": "getPlayer",
      "outputs": [
        {
          "internalType": "address",
          "name": "",
          "type": "address"
        }
      ],
      "stateMutability": "view",
      "type": "function"
    },
    {
      "inputs": [],
      "name": "getRecentWinner",
      "outputs": [
        {
          "internalType": "address",
          "name": "",
          "type": "address"
        }
      ],
      "stateMutability": "view",
      "type": "function"
    },
    {
      "inputs": [],
      "name": "owner",
      "outputs": [
        {
          "internalType": "address",
          "name": "",
          "type": "address"
        }
      ],
      "stateMutability": "view",
      "type": "function"
    },
    {
      "inputs": [],
      "name": "pickRandomNumber",
      "outputs": [],
      "stateMutability": "nonpayable",
      "type": "function"
    },
    {
      "inputs": [
        {
          "internalType": "uint256",
          "name": "requestId",
          "type": "uint256"
        },
        {
          "internalType": "uint256[]",
          "name": "randomWords",
          "type": "uint256[]"
        }
      ],
      "name": "rawFulfillRandomWords",
      "outputs": [],
      "stateMutability": "nonpayable",
      "type": "function"
    }
  ],
  "bytecode": "0x6101406040523480156200001257600080fd5b5060405162000fb838038062000fb88339818101604052810190620000389190620001ae565b848073ffffffffffffffffffffffffffffffffffffffff1660808173ffffffffffffffffffffffffffffffffffffffff1660601b81525050508360a08181525050336000806101000a81548173ffffffffffffffffffffffffffffffffffffffff021916908373ffffffffffffffffffffffffffffffffffffffff1602179055508473ffffffffffffffffffffffffffffffffffffffff1660c08173ffffffffffffffffffffffffffffffffffffffff1660601b815250508260e081815250508167ffffffffffffffff166101008167ffffffffffffffff1660c01b815250508063ffffffff166101208163ffffffff1660e01b81525050505050505062000329565b6000815190506200014c81620002a7565b92915050565b6000815190506200016381620002c1565b92915050565b6000815190506200017a81620002db565b92915050565b6000815190506200019181620002f5565b92915050565b600081519050620001a8816200030f565b92915050565b600080600080600060a08688031215620001cd57620001cc620002a2565b5b6000620001dd888289016200013b565b9550506020620001f08882890162000169565b9450506040620002038882890162000152565b9350506060620002168882890162000197565b9250506080620002298882890162000180565b9150509295509295909350565b6000620002438262000254565b9050919050565b6000819050919050565b600073ffffffffffffffffffffffffffffffffffffffff82169050919050565b6000819050919050565b600063ffffffff82169050919050565b600067ffffffffffffffff82169050919050565b600080fd5b620002b28162000236565b8114620002be57600080fd5b50565b620002cc816200024a565b8114620002d857600080fd5b50565b620002e68162000274565b8114620002f257600080fd5b50565b62000300816200027e565b81146200030c57600080fd5b50565b6200031a816200028e565b81146200032657600080fd5b50565b60805160601c60a05160c05160601c60e0516101005160c01c6101205160e01c610c2562000393600039600061033701526000610314015260006102f3015260006102b701526000818161018101526103fe0152600081816101a701526101fb0152610c256000f3fe6080604052600436106100705760003560e01c80638da5cb5b1161004e5780638da5cb5b146100f4578063a2acb2eb1461011f578063c1af578514610136578063e55ae4e81461014057610070565b806309bc33a7146100755780631fe543e3146100a0578063473f1ddc146100c9575b600080fd5b34801561008157600080fd5b5061008a61017d565b60405161009791906109d2565b60405180910390f35b3480156100ac57600080fd5b506100c760048036038101906100c2919061084d565b6101a5565b005b3480156100d557600080fd5b506100de610265565b6040516100eb919061093b565b60405180910390f35b34801561010057600080fd5b5061010961028f565b604051610116919061093b565b60405180910390f35b34801561012b57600080fd5b506101346102b3565b005b61013e6103fc565b005b34801561014c57600080fd5b50610167600480360381019061016291906107f3565b6104fe565b604051610174919061093b565b60405180910390f35b60007f0000000000000000000000000000000000000000000000000000000000000000905090565b7f000000000000000000000000000000000000000000000000000000000000000073ffffffffffffffffffffffffffffffffffffffff163373ffffffffffffffffffffffffffffffffffffffff161461025757337f00000000000000000000000000000000000000000000000000000000000000006040517f1cf993f400000000000000000000000000000000000000000000000000000000815260040161024e929190610956565b60405180910390fd5b6102618282610546565b5050565b6000600160009054906101000a900473ffffffffffffffffffffffffffffffffffffffff16905090565b60008054906101000a900473ffffffffffffffffffffffffffffffffffffffff1681565b60007f000000000000000000000000000000000000000000000000000000000000000073ffffffffffffffffffffffffffffffffffffffff16635d3b1d307f00000000000000000000000000000000000000000000000000000000000000007f000000000000000000000000000000000000000000000000000000000000000060037f000000000000000000000000000000000000000000000000000000000000000060016040518663ffffffff1660e01b815260040161037895949392919061097f565b602060405180830381600087803b15801561039257600080fd5b505af11580156103a6573d6000803e3d6000fd5b505050506040513d601f19601f820116820180604052508101906103ca9190610820565b9050807fecc3483bfb6d697d331d58898d2400387ced5b0bf3092b2ff3f3b3a542f6f74860405160405180910390a250565b7f0000000000000000000000000000000000000000000000000000000000000000341015610456576040517f3e8f808800000000000000000000000000000000000000000000000000000000815260040160405180910390fd5b6002339080600181540180825580915050600190039060005260206000200160009091909190916101000a81548173ffffffffffffffffffffffffffffffffffffffff021916908373ffffffffffffffffffffffffffffffffffffffff1602179055503373ffffffffffffffffffffffffffffffffffffffff167f6ba87006f2c53f2d227d45b3400034f16dbf4f6842816c4880d30170f3a6a16060405160405180910390a2565b60006002828154811061051457610513610b52565b5b9060005260206000200160009054906101000a900473ffffffffffffffffffffffffffffffffffffffff169050919050565b60006002805490508260008151811061056257610561610b52565b5b60200260200101516105749190610af2565b905060006002828154811061058c5761058b610b52565b5b9060005260206000200160009054906101000a900473ffffffffffffffffffffffffffffffffffffffff16905080600160006101000a81548173ffffffffffffffffffffffffffffffffffffffff021916908373ffffffffffffffffffffffffffffffffffffffff1602179055506000600160009054906101000a900473ffffffffffffffffffffffffffffffffffffffff1673ffffffffffffffffffffffffffffffffffffffff164760405161064290610926565b60006040518083038185875af1925050503d806000811461067f576040519150601f19603f3d011682016040523d82523d6000602084013e610684565b606091505b50509050806106bf576040517fbb2fec4300000000000000000000000000000000000000000000000000000000815260040160405180910390fd5b600160009054906101000a900473ffffffffffffffffffffffffffffffffffffffff1673ffffffffffffffffffffffffffffffffffffffff167f794919b0f484b8e90b1b817ac7f880f846fbd8a9813dee2a378e820db094e3d160405160405180910390a25050505050565b600061073e61073984610a12565b6109ed565b9050808382526020820190508285602086028201111561076157610760610bb5565b5b60005b85811015610791578161077788826107c9565b845260208401935060208301925050600181019050610764565b5050509392505050565b600082601f8301126107b0576107af610bb0565b5b81356107c084826020860161072b565b91505092915050565b6000813590506107d881610bd8565b92915050565b6000815190506107ed81610bd8565b92915050565b60006020828403121561080957610808610bbf565b5b6000610817848285016107c9565b91505092915050565b60006020828403121561083657610835610bbf565b5b6000610844848285016107de565b91505092915050565b6000806040838503121561086457610863610bbf565b5b6000610872858286016107c9565b925050602083013567ffffffffffffffff81111561089357610892610bba565b5b61089f8582860161079b565b9150509250929050565b6108b281610a49565b82525050565b6108c181610a5b565b82525050565b60006108d4600083610a3e565b91506108df82610bd5565b600082019050919050565b6108f381610a65565b82525050565b61090281610a93565b82525050565b61091181610a9d565b82525050565b61092081610aad565b82525050565b6000610931826108c7565b9150819050919050565b600060208201905061095060008301846108a9565b92915050565b600060408201905061096b60008301856108a9565b61097860208301846108a9565b9392505050565b600060a08201905061099460008301886108b8565b6109a16020830187610917565b6109ae60408301866108ea565b6109bb6060830185610908565b6109c86080830184610908565b9695505050505050565b60006020820190506109e760008301846108f9565b92915050565b60006109f7610a08565b9050610a038282610ac1565b919050565b6000604051905090565b600067ffffffffffffffff821115610a2d57610a2c610b81565b5b602082029050602081019050919050565b600081905092915050565b6000610a5482610a73565b9050919050565b6000819050919050565b600061ffff82169050919050565b600073ffffffffffffffffffffffffffffffffffffffff82169050919050565b6000819050919050565b600063ffffffff82169050919050565b600067ffffffffffffffff82169050919050565b610aca82610bc4565b810181811067ffffffffffffffff82111715610ae957610ae8610b81565b5b80604052505050565b6000610afd82610a93565b9150610b0883610a93565b925082610b1857610b17610b23565b5b828206905092915050565b7f4e487b7100000000000000000000000000000000000000000000000000000000600052601260045260246000fd5b7f4e487b7100000000000000000000000000000000000000000000000000000000600052603260045260246000fd5b7f4e487b7100000000000000000000000000000000000000000000000000000000600052604160045260246000fd5b600080fd5b600080fd5b600080fd5b600080fd5b6000601f19601f8301169050919050565b50565b610be181610a93565b8114610bec57600080fd5b5056fea2646970667358221220df9cc7e3c1af53202b5850dbb819e251c1f5a114b51b086321f0168e9eda13d964736f6c63430008060033",
  "linkReferences": {},
  "deployedLinkReferences": {}
}