{
  "_format": "hh-sol-artifact-1",
  "contractName": "DecentralizedLottery",
  "sourceName": "contracts/DecentralizedLottery.sol",
  "abi": [
    {
      "inputs": [
        {
          "internalType": "address",
          "name": "vrfCoordinatorV2",
          "type": "address"
        },
        {
          "internalType": "uint256",
          "name": "_entranceFee",
          "type": "uint256"
        },
        {
          "internalType": "bytes32",
          "name": "_gasLane",
          "type": "bytes32"
        },
        {
          "internalType": "uint64",
          "name": "_subscriptionId",
          "type": "uint64"
        },
        {
          "internalType": "uint32",
          "name": "_callbackGasLimit",
          "type": "uint32"
        },
        {
          "internalType": "uint256",
          "name": "_interval",
          "type": "uint256"
        }
      ],
      "stateMutability": "nonpayable",
      "type": "constructor"
    },
    {
      "inputs": [],
      "name": "Lottery__NotEnoughEthEntered",
      "type": "error"
    },
    {
      "inputs": [],
      "name": "Lottery__NotOpen",
      "type": "error"
    },
    {
      "inputs": [],
      "name": "Lottery__TransferToWinnerFailed",
      "type": "error"
    },
    {
      "inputs": [
        {
          "internalType": "uint256",
          "name": "currentBalance",
          "type": "uint256"
        },
        {
          "internalType": "uint256",
          "name": "numOfPlayers",
          "type": "uint256"
        },
        {
          "internalType": "uint256",
          "name": "raffleState",
          "type": "uint256"
        }
      ],
      "name": "Lottery__UpKeepNotNeeded",
      "type": "error"
    },
    {
      "inputs": [
        {
          "internalType": "address",
          "name": "have",
          "type": "address"
        },
        {
          "internalType": "address",
          "name": "want",
          "type": "address"
        }
      ],
      "name": "OnlyCoordinatorCanFulfill",
      "type": "error"
    },
    {
      "anonymous": false,
      "inputs": [
        {
          "indexed": true,
          "internalType": "address",
          "name": "player",
          "type": "address"
        }
      ],
      "name": "lotteryEnter",
      "type": "event"
    },
    {
      "anonymous": false,
      "inputs": [
        {
          "indexed": true,
          "internalType": "uint256",
          "name": "requestId",
          "type": "uint256"
        }
      ],
      "name": "randomNumberPick",
      "type": "event"
    },
    {
      "anonymous": false,
      "inputs": [
        {
          "indexed": true,
          "internalType": "address",
          "name": "recentWinner",
          "type": "address"
        }
      ],
      "name": "winnerPicked",
      "type": "event"
    },
    {
      "inputs": [
        {
          "internalType": "bytes",
          "name": "",
          "type": "bytes"
        }
      ],
      "name": "checkUpkeep",
      "outputs": [
        {
          "internalType": "bool",
          "name": "upkeepNeeded",
          "type": "bool"
        },
        {
          "internalType": "bytes",
          "name": "",
          "type": "bytes"
        }
      ],
      "stateMutability": "view",
      "type": "function"
    },
    {
      "inputs": [],
      "name": "enterLottery",
      "outputs": [],
      "stateMutability": "payable",
      "type": "function"
    },
    {
      "inputs": [],
      "name": "getEntranceFee",
      "outputs": [
        {
          "internalType": "uint256",
          "name": "",
          "type": "uint256"
        }
      ],
      "stateMutability": "view",
      "type": "function"
    },
    {
      "inputs": [],
      "name": "getLastTimeStamp",
      "outputs": [
        {
          "internalType": "uint256",
          "name": "",
          "type": "uint256"
        }
      ],
      "stateMutability": "view",
      "type": "function"
    },
    {
      "inputs": [],
      "name": "getLotteryState",
      "outputs": [
        {
          "internalType": "enum DecentralizedLottery.LotteryState",
          "name": "",
          "type": "uint8"
        }
      ],
      "stateMutability": "view",
      "type": "function"
    },
    {
      "inputs": [],
      "name": "getNumWords",
      "outputs": [
        {
          "internalType": "uint256",
          "name": "",
          "type": "uint256"
        }
      ],
      "stateMutability": "pure",
      "type": "function"
    },
    {
      "inputs": [],
      "name": "getNumbersOfPlayers",
      "outputs": [
        {
          "internalType": "uint256",
          "name": "",
          "type": "uint256"
        }
      ],
      "stateMutability": "view",
      "type": "function"
    },
    {
      "inputs": [
        {
          "internalType": "uint256",
          "name": "index",
          "type": "uint256"
        }
      ],
      "name": "getPlayer",
      "outputs": [
        {
          "internalType": "address",
          "name": "",
          "type": "address"
        }
      ],
      "stateMutability": "view",
      "type": "function"
    },
    {
      "inputs": [],
      "name": "getRecentWinner",
      "outputs": [
        {
          "internalType": "address",
          "name": "",
          "type": "address"
        }
      ],
      "stateMutability": "view",
      "type": "function"
    },
    {
      "inputs": [],
      "name": "getRequestConfirmations",
      "outputs": [
        {
          "internalType": "uint256",
          "name": "",
          "type": "uint256"
        }
      ],
      "stateMutability": "pure",
      "type": "function"
    },
    {
      "inputs": [],
      "name": "owner",
      "outputs": [
        {
          "internalType": "address",
          "name": "",
          "type": "address"
        }
      ],
      "stateMutability": "view",
      "type": "function"
    },
    {
      "inputs": [
        {
          "internalType": "bytes",
          "name": "",
          "type": "bytes"
        }
      ],
      "name": "performUpkeep",
      "outputs": [],
      "stateMutability": "nonpayable",
      "type": "function"
    },
    {
      "inputs": [
        {
          "internalType": "uint256",
          "name": "requestId",
          "type": "uint256"
        },
        {
          "internalType": "uint256[]",
          "name": "randomWords",
          "type": "uint256[]"
        }
      ],
      "name": "rawFulfillRandomWords",
      "outputs": [],
      "stateMutability": "nonpayable",
      "type": "function"
    }
  ],
  "bytecode": "0x6101606040523480156200001257600080fd5b50604051620018f3380380620018f38339818101604052810190620000389190620001ee565b858073ffffffffffffffffffffffffffffffffffffffff1660808173ffffffffffffffffffffffffffffffffffffffff1660601b81525050508460a0818152505033600160006101000a81548173ffffffffffffffffffffffffffffffffffffffff021916908373ffffffffffffffffffffffffffffffffffffffff1602179055508573ffffffffffffffffffffffffffffffffffffffff1660e08173ffffffffffffffffffffffffffffffffffffffff1660601b815250508361010081815250508267ffffffffffffffff166101208167ffffffffffffffff1660c01b815250508163ffffffff166101408163ffffffff1660e01b815250506000600460006101000a81548160ff021916908360018111156200015b576200015a620002f6565b5b0217905550426000819055508060c08181525050505050505050620003ac565b6000815190506200018c816200032a565b92915050565b600081519050620001a38162000344565b92915050565b600081519050620001ba816200035e565b92915050565b600081519050620001d18162000378565b92915050565b600081519050620001e88162000392565b92915050565b60008060008060008060c087890312156200020e576200020d62000325565b5b60006200021e89828a016200017b565b96505060206200023189828a01620001a9565b95505060406200024489828a0162000192565b94505060606200025789828a01620001d7565b93505060806200026a89828a01620001c0565b92505060a06200027d89828a01620001a9565b9150509295509295509295565b60006200029782620002a8565b9050919050565b6000819050919050565b600073ffffffffffffffffffffffffffffffffffffffff82169050919050565b6000819050919050565b600063ffffffff82169050919050565b600067ffffffffffffffff82169050919050565b7f4e487b7100000000000000000000000000000000000000000000000000000000600052602160045260246000fd5b600080fd5b62000335816200028a565b81146200034157600080fd5b50565b6200034f816200029e565b81146200035b57600080fd5b50565b6200036981620002c8565b81146200037557600080fd5b50565b6200038381620002d2565b81146200038f57600080fd5b50565b6200039d81620002e2565b8114620003a957600080fd5b50565b60805160601c60a05160c05160e05160601c610100516101205160c01c6101405160e01c6114d2620004216000396000610516015260006104f3015260006104d2015260006104960152600061067d0152600081816102fa0152610757015260008181610320015261037401526114d26000f3fe6080604052600436106100c25760003560e01c80636b68c03c1161007f5780638da5cb5b116100595780638da5cb5b14610259578063c1af578514610284578063c1c244e81461028e578063e55ae4e8146102b9576100c2565b80636b68c03c146101c55780636e04ff0d146101f05780638233a0761461022e576100c2565b806309bc33a7146100c75780631fe543e3146100f25780634585e33b1461011b578063473f1ddc1461014457806353a2c19a1461016f5780635f1b0fd81461019a575b600080fd5b3480156100d357600080fd5b506100dc6102f6565b6040516100e991906110d8565b60405180910390f35b3480156100fe57600080fd5b5061011960048036038101906101149190610eb1565b61031e565b005b34801561012757600080fd5b50610142600480360381019061013d9190610dc1565b6103de565b005b34801561015057600080fd5b506101596105de565b6040516101669190610ff6565b60405180910390f35b34801561017b57600080fd5b50610184610608565b60405161019191906110d8565b60405180910390f35b3480156101a657600080fd5b506101af610617565b6040516101bc91906110d8565b60405180910390f35b3480156101d157600080fd5b506101da610624565b6040516101e791906110bd565b60405180910390f35b3480156101fc57600080fd5b5061021760048036038101906102129190610e0e565b61063b565b60405161022592919061103a565b60405180910390f35b34801561023a57600080fd5b50610243610722565b60405161025091906110d8565b60405180910390f35b34801561026557600080fd5b5061026e61072f565b60405161027b9190610ff6565b60405180910390f35b61028c610755565b005b34801561029a57600080fd5b506102a36108c4565b6040516102b091906110d8565b60405180910390f35b3480156102c557600080fd5b506102e060048036038101906102db9190610e57565b6108cd565b6040516102ed9190610ff6565b60405180910390f35b60007f0000000000000000000000000000000000000000000000000000000000000000905090565b7f000000000000000000000000000000000000000000000000000000000000000073ffffffffffffffffffffffffffffffffffffffff163373ffffffffffffffffffffffffffffffffffffffff16146103d057337f00000000000000000000000000000000000000000000000000000000000000006040517f1cf993f40000000000000000000000000000000000000000000000000000000081526004016103c7929190611011565b60405180910390fd5b6103da8282610915565b5050565b60006103f86040518060200160405280600081525061063b565b509050806104675747600380549050600460009054906101000a900460ff166001811115610429576104286113b2565b5b6040517fa9e3cfef00000000000000000000000000000000000000000000000000000000815260040161045e939291906110f3565b60405180910390fd5b6001600460006101000a81548160ff0219169083600181111561048d5761048c6113b2565b5b021790555060007f000000000000000000000000000000000000000000000000000000000000000073ffffffffffffffffffffffffffffffffffffffff16635d3b1d307f00000000000000000000000000000000000000000000000000000000000000007f000000000000000000000000000000000000000000000000000000000000000060037f000000000000000000000000000000000000000000000000000000000000000060016040518663ffffffff1660e01b815260040161055795949392919061106a565b602060405180830381600087803b15801561057157600080fd5b505af1158015610585573d6000803e3d6000fd5b505050506040513d601f19601f820116820180604052508101906105a99190610e84565b9050807fecc3483bfb6d697d331d58898d2400387ced5b0bf3092b2ff3f3b3a542f6f74860405160405180910390a250505050565b6000600260009054906101000a900473ffffffffffffffffffffffffffffffffffffffff16905090565b6000600163ffffffff16905090565b6000600361ffff16905090565b6000600460009054906101000a900460ff16905090565b600060606000806001811115610654576106536113b2565b5b600460009054906101000a900460ff166001811115610676576106756113b2565b5b14905060007f0000000000000000000000000000000000000000000000000000000000000000600054426106aa91906111d3565b119050600080600380549050119050600080471190508380156106ca5750825b80156106d35750815b80156106dc5750805b9550856040518060400160405280600381526020017f30783000000000000000000000000000000000000000000000000000000000008152509550955050505050915091565b6000600380549050905090565b600160009054906101000a900473ffffffffffffffffffffffffffffffffffffffff1681565b7f00000000000000000000000000000000000000000000000000000000000000003410156107af576040517f3e8f808800000000000000000000000000000000000000000000000000000000815260040160405180910390fd5b600060018111156107c3576107c26113b2565b5b600460009054906101000a900460ff1660018111156107e5576107e46113b2565b5b1461081c576040517fe76be6fc00000000000000000000000000000000000000000000000000000000815260040160405180910390fd5b6003339080600181540180825580915050600190039060005260206000200160009091909190916101000a81548173ffffffffffffffffffffffffffffffffffffffff021916908373ffffffffffffffffffffffffffffffffffffffff1602179055503373ffffffffffffffffffffffffffffffffffffffff167f6ba87006f2c53f2d227d45b3400034f16dbf4f6842816c4880d30170f3a6a16060405160405180910390a2565b60008054905090565b6000600382815481106108e3576108e26113e1565b5b9060005260206000200160009054906101000a900473ffffffffffffffffffffffffffffffffffffffff169050919050565b600060038054905082600081518110610931576109306113e1565b5b60200260200101516109439190611323565b905060006003828154811061095b5761095a6113e1565b5b9060005260206000200160009054906101000a900473ffffffffffffffffffffffffffffffffffffffff16905080600260006101000a81548173ffffffffffffffffffffffffffffffffffffffff021916908373ffffffffffffffffffffffffffffffffffffffff1602179055506000600260009054906101000a900473ffffffffffffffffffffffffffffffffffffffff1673ffffffffffffffffffffffffffffffffffffffff1647604051610a1190610fe1565b60006040518083038185875af1925050503d8060008114610a4e576040519150601f19603f3d011682016040523d82523d6000602084013e610a53565b606091505b5050905080610a8e576040517fbb2fec4300000000000000000000000000000000000000000000000000000000815260040160405180910390fd5b600260009054906101000a900473ffffffffffffffffffffffffffffffffffffffff1673ffffffffffffffffffffffffffffffffffffffff167f794919b0f484b8e90b1b817ac7f880f846fbd8a9813dee2a378e820db094e3d160405160405180910390a26000600460006101000a81548160ff02191690836001811115610b1957610b186113b2565b5b0217905550600067ffffffffffffffff811115610b3957610b38611410565b5b604051908082528060200260200182016040528015610b675781602001602082028036833780820191505090505b5060039080519060200190610b7d929190610b8c565b50426000819055505050505050565b828054828255906000526020600020908101928215610c05579160200282015b82811115610c045782518260006101000a81548173ffffffffffffffffffffffffffffffffffffffff021916908373ffffffffffffffffffffffffffffffffffffffff16021790555091602001919060010190610bac565b5b509050610c129190610c16565b5090565b5b80821115610c2f576000816000905550600101610c17565b5090565b6000610c46610c418461114f565b61112a565b90508083825260208201905082856020860282011115610c6957610c68611449565b5b60005b85811015610c995781610c7f8882610d97565b845260208401935060208301925050600181019050610c6c565b5050509392505050565b6000610cb6610cb18461117b565b61112a565b905082815260208101848484011115610cd257610cd161144e565b5b610cdd8482856112b0565b509392505050565b600082601f830112610cfa57610cf9611444565b5b8135610d0a848260208601610c33565b91505092915050565b60008083601f840112610d2957610d28611444565b5b8235905067ffffffffffffffff811115610d4657610d4561143f565b5b602083019150836001820283011115610d6257610d61611449565b5b9250929050565b600082601f830112610d7e57610d7d611444565b5b8135610d8e848260208601610ca3565b91505092915050565b600081359050610da681611485565b92915050565b600081519050610dbb81611485565b92915050565b60008060208385031215610dd857610dd7611458565b5b600083013567ffffffffffffffff811115610df657610df5611453565b5b610e0285828601610d13565b92509250509250929050565b600060208284031215610e2457610e23611458565b5b600082013567ffffffffffffffff811115610e4257610e41611453565b5b610e4e84828501610d69565b91505092915050565b600060208284031215610e6d57610e6c611458565b5b6000610e7b84828501610d97565b91505092915050565b600060208284031215610e9a57610e99611458565b5b6000610ea884828501610dac565b91505092915050565b60008060408385031215610ec857610ec7611458565b5b6000610ed685828601610d97565b925050602083013567ffffffffffffffff811115610ef757610ef6611453565b5b610f0385828601610ce5565b9150509250929050565b610f1681611207565b82525050565b610f2581611219565b82525050565b610f3481611225565b82525050565b6000610f45826111ac565b610f4f81856111b7565b9350610f5f8185602086016112bf565b610f688161145d565b840191505092915050565b610f7c8161129e565b82525050565b6000610f8f6000836111c8565b9150610f9a8261146e565b600082019050919050565b610fae81611242565b82525050565b610fbd81611270565b82525050565b610fcc8161127a565b82525050565b610fdb8161128a565b82525050565b6000610fec82610f82565b9150819050919050565b600060208201905061100b6000830184610f0d565b92915050565b60006040820190506110266000830185610f0d565b6110336020830184610f0d565b9392505050565b600060408201905061104f6000830185610f1c565b81810360208301526110618184610f3a565b90509392505050565b600060a08201905061107f6000830188610f2b565b61108c6020830187610fd2565b6110996040830186610fa5565b6110a66060830185610fc3565b6110b36080830184610fc3565b9695505050505050565b60006020820190506110d26000830184610f73565b92915050565b60006020820190506110ed6000830184610fb4565b92915050565b60006060820190506111086000830186610fb4565b6111156020830185610fb4565b6111226040830184610fb4565b949350505050565b6000611134611145565b905061114082826112f2565b919050565b6000604051905090565b600067ffffffffffffffff82111561116a57611169611410565b5b602082029050602081019050919050565b600067ffffffffffffffff82111561119657611195611410565b5b61119f8261145d565b9050602081019050919050565b600081519050919050565b600082825260208201905092915050565b600081905092915050565b60006111de82611270565b91506111e983611270565b9250828210156111fc576111fb611354565b5b828203905092915050565b600061121282611250565b9050919050565b60008115159050919050565b6000819050919050565b600081905061123d82611471565b919050565b600061ffff82169050919050565b600073ffffffffffffffffffffffffffffffffffffffff82169050919050565b6000819050919050565b600063ffffffff82169050919050565b600067ffffffffffffffff82169050919050565b60006112a98261122f565b9050919050565b82818337600083830152505050565b60005b838110156112dd5780820151818401526020810190506112c2565b838111156112ec576000848401525b50505050565b6112fb8261145d565b810181811067ffffffffffffffff8211171561131a57611319611410565b5b80604052505050565b600061132e82611270565b915061133983611270565b92508261134957611348611383565b5b828206905092915050565b7f4e487b7100000000000000000000000000000000000000000000000000000000600052601160045260246000fd5b7f4e487b7100000000000000000000000000000000000000000000000000000000600052601260045260246000fd5b7f4e487b7100000000000000000000000000000000000000000000000000000000600052602160045260246000fd5b7f4e487b7100000000000000000000000000000000000000000000000000000000600052603260045260246000fd5b7f4e487b7100000000000000000000000000000000000000000000000000000000600052604160045260246000fd5b600080fd5b600080fd5b600080fd5b600080fd5b600080fd5b600080fd5b6000601f19601f8301169050919050565b50565b60028110611482576114816113b2565b5b50565b61148e81611270565b811461149957600080fd5b5056fea2646970667358221220cb1ec19b931fed65e2724dfedf9137892c6701daf5744ec888a0dabe80e0dc1b64736f6c63430008070033",
  "linkReferences": {},
  "deployedLinkReferences": {}
}